{
  "_format": "hh-sol-artifact-1",
  "contractName": "hDAOEscrow",
  "sourceName": "contracts/hDAOEscrow.sol",
  "abi": [
    {
      "inputs": [
        {
          "internalType": "address payable",
          "name": "beneficiary_",
          "type": "address"
        }
      ],
      "stateMutability": "nonpayable",
      "type": "constructor"
    },
    {
      "anonymous": false,
      "inputs": [
        {
          "indexed": false,
          "internalType": "string",
          "name": "depositAnnouncement",
          "type": "string"
        }
      ],
      "name": "DepositEvent",
      "type": "event"
    },
    {
      "anonymous": false,
      "inputs": [
        {
          "indexed": true,
          "internalType": "address",
          "name": "previousOwner",
          "type": "address"
        },
        {
          "indexed": true,
          "internalType": "address",
          "name": "newOwner",
          "type": "address"
        }
      ],
      "name": "OwnershipTransferred",
      "type": "event"
    },
    {
      "anonymous": false,
      "inputs": [],
      "name": "RefundsClosed",
      "type": "event"
    },
    {
      "anonymous": false,
      "inputs": [],
      "name": "RefundsReactivated",
      "type": "event"
    },
    {
      "anonymous": false,
      "inputs": [
        {
          "indexed": false,
          "internalType": "string",
          "name": "withdrawalAnnouncement",
          "type": "string"
        }
      ],
      "name": "WithdrawalEvent",
      "type": "event"
    },
    {
      "inputs": [
        {
          "internalType": "address",
          "name": "",
          "type": "address"
        },
        {
          "internalType": "bytes32",
          "name": "",
          "type": "bytes32"
        }
      ],
      "name": "accountBalances",
      "outputs": [
        {
          "internalType": "uint256",
          "name": "",
          "type": "uint256"
        }
      ],
      "stateMutability": "view",
      "type": "function"
    },
    {
      "inputs": [],
      "name": "beneficiary",
      "outputs": [
        {
          "internalType": "address payable",
          "name": "",
          "type": "address"
        }
      ],
      "stateMutability": "view",
      "type": "function"
    },
    {
      "inputs": [
        {
          "internalType": "bytes32",
          "name": "_symbol",
          "type": "bytes32"
        }
      ],
      "name": "beneficiaryWithdraw",
      "outputs": [],
      "stateMutability": "nonpayable",
      "type": "function"
    },
    {
      "inputs": [],
      "name": "close",
      "outputs": [],
      "stateMutability": "nonpayable",
      "type": "function"
    },
    {
      "inputs": [
        {
          "internalType": "uint256",
          "name": "amount",
          "type": "uint256"
        },
        {
          "internalType": "bytes32",
          "name": "symbol",
          "type": "bytes32"
        }
      ],
      "name": "depositTokens",
      "outputs": [],
      "stateMutability": "nonpayable",
      "type": "function"
    },
    {
      "inputs": [],
      "name": "open",
      "outputs": [],
      "stateMutability": "nonpayable",
      "type": "function"
    },
    {
      "inputs": [],
      "name": "owner",
      "outputs": [
        {
          "internalType": "address",
          "name": "",
          "type": "address"
        }
      ],
      "stateMutability": "view",
      "type": "function"
    },
    {
      "inputs": [],
      "name": "renounceOwnership",
      "outputs": [],
      "stateMutability": "nonpayable",
      "type": "function"
    },
    {
      "inputs": [],
      "name": "state",
      "outputs": [
        {
          "internalType": "enum hDAOEscrow.State",
          "name": "",
          "type": "uint8"
        }
      ],
      "stateMutability": "view",
      "type": "function"
    },
    {
      "inputs": [
        {
          "internalType": "address",
          "name": "newOwner",
          "type": "address"
        }
      ],
      "name": "transferOwnership",
      "outputs": [],
      "stateMutability": "nonpayable",
      "type": "function"
    },
    {
      "inputs": [
        {
          "internalType": "bytes32",
          "name": "symbol",
          "type": "bytes32"
        },
        {
          "internalType": "address",
          "name": "tokenAddress",
          "type": "address"
        }
      ],
      "name": "whitelistToken",
      "outputs": [],
      "stateMutability": "nonpayable",
      "type": "function"
    },
    {
      "inputs": [
        {
          "internalType": "bytes32",
          "name": "",
          "type": "bytes32"
        }
      ],
      "name": "whitelistedTokens",
      "outputs": [
        {
          "internalType": "address",
          "name": "",
          "type": "address"
        }
      ],
      "stateMutability": "view",
      "type": "function"
    },
    {
      "inputs": [
        {
          "internalType": "uint256",
          "name": "amount",
          "type": "uint256"
        },
        {
          "internalType": "bytes32",
          "name": "symbol",
          "type": "bytes32"
        }
      ],
      "name": "withdrawTokens",
      "outputs": [],
      "stateMutability": "nonpayable",
      "type": "function"
    },
    {
      "inputs": [],
      "name": "withdrawalAllowed",
      "outputs": [
        {
          "internalType": "bool",
          "name": "",
          "type": "bool"
        }
      ],
      "stateMutability": "view",
      "type": "function"
    }
  ],
  "bytecode": "0x60a06040523480156200001157600080fd5b5060405162001adb38038062001adb833981810160405281019062000037919062000268565b620000576200004b6200013260201b60201c565b6200013a60201b60201c565b600073ffffffffffffffffffffffffffffffffffffffff168173ffffffffffffffffffffffffffffffffffffffff161415620000ca576040517f08c379a0000000000000000000000000000000000000000000000000000000008152600401620000c19062000321565b60405180910390fd5b8073ffffffffffffffffffffffffffffffffffffffff1660808173ffffffffffffffffffffffffffffffffffffffff168152505060008060146101000a81548160ff0219169083600181111562000126576200012562000343565b5b02179055505062000372565b600033905090565b60008060009054906101000a900473ffffffffffffffffffffffffffffffffffffffff169050816000806101000a81548173ffffffffffffffffffffffffffffffffffffffff021916908373ffffffffffffffffffffffffffffffffffffffff1602179055508173ffffffffffffffffffffffffffffffffffffffff168173ffffffffffffffffffffffffffffffffffffffff167f8be0079c531659141344cd1fd0a4f28419497f9722a3daafe3b4186f6b6457e060405160405180910390a35050565b600080fd5b600073ffffffffffffffffffffffffffffffffffffffff82169050919050565b6000620002308262000203565b9050919050565b620002428162000223565b81146200024e57600080fd5b50565b600081519050620002628162000237565b92915050565b600060208284031215620002815762000280620001fe565b5b6000620002918482850162000251565b91505092915050565b600082825260208201905092915050565b7f526566756e64457363726f773a2062656e65666963696172792069732074686560008201527f207a65726f206164647265737300000000000000000000000000000000000000602082015250565b600062000309602d836200029a565b91506200031682620002ab565b604082019050919050565b600060208201905081810360008301526200033c81620002fa565b9050919050565b7f4e487b7100000000000000000000000000000000000000000000000000000000600052602160045260246000fd5b60805161174d6200038e60003960006102d3015261174d6000f3fe608060405234801561001057600080fd5b50600436106100ea5760003560e01c8063a1d193611161008c578063d15b223e11610066578063d15b223e146101ff578063e64fe3661461021b578063f2fde38b1461024b578063fcfff16f14610267576100ea565b8063a1d1936114610193578063aa3d9a15146101b1578063c19d93fb146101e1576100ea565b806363e33a3e116100c857806363e33a3e14610133578063715018a61461014f5780638da5cb5b146101595780638f97994b14610177576100ea565b8063069fdaae146100ef57806338af3eed1461010b57806343d726d614610129575b600080fd5b61010960048036038101906101049190610dda565b610271565b005b6101136102cf565b6040516101209190610e3b565b60405180910390f35b6101316102f7565b005b61014d60048036038101906101489190610e56565b6103c6565b005b6101576105ba565b005b6101616105ce565b60405161016e9190610e92565b60405180910390f35b610191600480360381019061018c9190610ee3565b6105f7565b005b61019b610832565b6040516101a89190610f3e565b60405180910390f35b6101cb60048036038101906101c69190610e56565b610867565b6040516101d89190610e92565b60405180910390f35b6101e961089a565b6040516101f69190610fd0565b60405180910390f35b61021960048036038101906102149190610ee3565b6108b0565b005b61023560048036038101906102309190610feb565b610a81565b604051610242919061103a565b60405180910390f35b61026560048036038101906102609190611055565b610aa6565b005b61026f610b2a565b005b610279610bf7565b806001600084815260200190815260200160002060006101000a81548173ffffffffffffffffffffffffffffffffffffffff021916908373ffffffffffffffffffffffffffffffffffffffff1602179055505050565b60007f0000000000000000000000000000000000000000000000000000000000000000905090565b6102ff610bf7565b6000600181111561031357610312610f59565b5b61031b61089a565b600181111561032d5761032c610f59565b5b1461036d576040517f08c379a000000000000000000000000000000000000000000000000000000000815260040161036490611105565b60405180910390fd5b6001600060146101000a81548160ff0219169083600181111561039357610392610f59565b5b02179055507f088672c3a6e342f7cd94a65ba63b79df24a8973927b4d05d803c44bbf787d12f60405160405180910390a1565b6103ce610bf7565b6001808111156103e1576103e0610f59565b5b6103e961089a565b60018111156103fb576103fa610f59565b5b1461043b576040517f08c379a000000000000000000000000000000000000000000000000000000000815260040161043290611197565b60405180910390fd5b6001600082815260200190815260200160002060009054906101000a900473ffffffffffffffffffffffffffffffffffffffff1673ffffffffffffffffffffffffffffffffffffffff1663a9059cbb336001600085815260200190815260200160002060009054906101000a900473ffffffffffffffffffffffffffffffffffffffff1673ffffffffffffffffffffffffffffffffffffffff166370a08231306040518263ffffffff1660e01b81526004016104f79190610e92565b60206040518083038186803b15801561050f57600080fd5b505afa158015610523573d6000803e3d6000fd5b505050506040513d601f19601f8201168201806040525081019061054791906111cc565b6040518363ffffffff1660e01b81526004016105649291906111f9565b602060405180830381600087803b15801561057e57600080fd5b505af1158015610592573d6000803e3d6000fd5b505050506040513d601f19601f820116820180604052508101906105b6919061124e565b5050565b6105c2610bf7565b6105cc6000610c75565b565b60008060009054906101000a900473ffffffffffffffffffffffffffffffffffffffff16905090565b6105ff610832565b61063e576040517f08c379a0000000000000000000000000000000000000000000000000000000008152600401610635906112c7565b60405180910390fd5b81600260003373ffffffffffffffffffffffffffffffffffffffff1673ffffffffffffffffffffffffffffffffffffffff16815260200190815260200160002060008381526020019081526020016000205410156106d1576040517f08c379a00000000000000000000000000000000000000000000000000000000081526004016106c890611333565b60405180910390fd5b81600260003373ffffffffffffffffffffffffffffffffffffffff1673ffffffffffffffffffffffffffffffffffffffff168152602001908152602001600020600083815260200190815260200160002060008282546107319190611382565b925050819055506001600082815260200190815260200160002060009054906101000a900473ffffffffffffffffffffffffffffffffffffffff1673ffffffffffffffffffffffffffffffffffffffff1663a9059cbb33846040518363ffffffff1660e01b81526004016107a69291906111f9565b602060405180830381600087803b1580156107c057600080fd5b505af11580156107d4573d6000803e3d6000fd5b505050506040513d601f19601f820116820180604052508101906107f8919061124e565b507f0f1d496ac5a9d2ac79de7db6343b4d28ca6d16152e3239c78a35130573cda1a960405161082690611402565b60405180910390a15050565b600080600181111561084757610846610f59565b5b61084f61089a565b600181111561086157610860610f59565b5b14905090565b60016020528060005260406000206000915054906101000a900473ffffffffffffffffffffffffffffffffffffffff1681565b60008060149054906101000a900460ff16905090565b600060018111156108c4576108c3610f59565b5b6108cc61089a565b60018111156108de576108dd610f59565b5b1461091e576040517f08c379a00000000000000000000000000000000000000000000000000000000081526004016109159061146e565b60405180910390fd5b81600260003373ffffffffffffffffffffffffffffffffffffffff1673ffffffffffffffffffffffffffffffffffffffff1681526020019081526020016000206000838152602001908152602001600020600082825461097e919061148e565b925050819055506001600082815260200190815260200160002060009054906101000a900473ffffffffffffffffffffffffffffffffffffffff1673ffffffffffffffffffffffffffffffffffffffff166323b872dd3330856040518463ffffffff1660e01b81526004016109f5939291906114e4565b602060405180830381600087803b158015610a0f57600080fd5b505af1158015610a23573d6000803e3d6000fd5b505050506040513d601f19601f82011682018060405250810190610a47919061124e565b507f966d5d49ff7569adbfb5b999d4705d06f9a93f64de13163c665ce175c9dc5041604051610a7590611567565b60405180910390a15050565b6002602052816000526040600020602052806000526040600020600091509150505481565b610aae610bf7565b600073ffffffffffffffffffffffffffffffffffffffff168173ffffffffffffffffffffffffffffffffffffffff161415610b1e576040517f08c379a0000000000000000000000000000000000000000000000000000000008152600401610b15906115f9565b60405180910390fd5b610b2781610c75565b50565b610b32610bf7565b600180811115610b4557610b44610f59565b5b610b4d61089a565b6001811115610b5f57610b5e610f59565b5b14610b9f576040517f08c379a0000000000000000000000000000000000000000000000000000000008152600401610b969061168b565b60405180910390fd5b60008060146101000a81548160ff02191690836001811115610bc457610bc3610f59565b5b02179055507fdde06920c542b118a8690e0449bba24e9091a6ae82e86996e849903a06b9c63d60405160405180910390a1565b610bff610d39565b73ffffffffffffffffffffffffffffffffffffffff16610c1d6105ce565b73ffffffffffffffffffffffffffffffffffffffff1614610c73576040517f08c379a0000000000000000000000000000000000000000000000000000000008152600401610c6a906116f7565b60405180910390fd5b565b60008060009054906101000a900473ffffffffffffffffffffffffffffffffffffffff169050816000806101000a81548173ffffffffffffffffffffffffffffffffffffffff021916908373ffffffffffffffffffffffffffffffffffffffff1602179055508173ffffffffffffffffffffffffffffffffffffffff168173ffffffffffffffffffffffffffffffffffffffff167f8be0079c531659141344cd1fd0a4f28419497f9722a3daafe3b4186f6b6457e060405160405180910390a35050565b600033905090565b600080fd5b6000819050919050565b610d5981610d46565b8114610d6457600080fd5b50565b600081359050610d7681610d50565b92915050565b600073ffffffffffffffffffffffffffffffffffffffff82169050919050565b6000610da782610d7c565b9050919050565b610db781610d9c565b8114610dc257600080fd5b50565b600081359050610dd481610dae565b92915050565b60008060408385031215610df157610df0610d41565b5b6000610dff85828601610d67565b9250506020610e1085828601610dc5565b9150509250929050565b6000610e2582610d7c565b9050919050565b610e3581610e1a565b82525050565b6000602082019050610e506000830184610e2c565b92915050565b600060208284031215610e6c57610e6b610d41565b5b6000610e7a84828501610d67565b91505092915050565b610e8c81610d9c565b82525050565b6000602082019050610ea76000830184610e83565b92915050565b6000819050919050565b610ec081610ead565b8114610ecb57600080fd5b50565b600081359050610edd81610eb7565b92915050565b60008060408385031215610efa57610ef9610d41565b5b6000610f0885828601610ece565b9250506020610f1985828601610d67565b9150509250929050565b60008115159050919050565b610f3881610f23565b82525050565b6000602082019050610f536000830184610f2f565b92915050565b7f4e487b7100000000000000000000000000000000000000000000000000000000600052602160045260246000fd5b60028110610f9957610f98610f59565b5b50565b6000819050610faa82610f88565b919050565b6000610fba82610f9c565b9050919050565b610fca81610faf565b82525050565b6000602082019050610fe56000830184610fc1565b92915050565b6000806040838503121561100257611001610d41565b5b600061101085828601610dc5565b925050602061102185828601610d67565b9150509250929050565b61103481610ead565b82525050565b600060208201905061104f600083018461102b565b92915050565b60006020828403121561106b5761106a610d41565b5b600061107984828501610dc5565b91505092915050565b600082825260208201905092915050565b7f526566756e64457363726f773a2063616e206f6e6c7920636c6f73652077686960008201527f6c65206163746976650000000000000000000000000000000000000000000000602082015250565b60006110ef602983611082565b91506110fa82611093565b604082019050919050565b6000602082019050818103600083015261111e816110e2565b9050919050565b7f42656e65666963696172792063616e206f6e6c7920776974686472617720776860008201527f696c6520636c6f73656400000000000000000000000000000000000000000000602082015250565b6000611181602a83611082565b915061118c82611125565b604082019050919050565b600060208201905081810360008301526111b081611174565b9050919050565b6000815190506111c681610eb7565b92915050565b6000602082840312156111e2576111e1610d41565b5b60006111f0848285016111b7565b91505092915050565b600060408201905061120e6000830185610e83565b61121b602083018461102b565b9392505050565b61122b81610f23565b811461123657600080fd5b50565b60008151905061124881611222565b92915050565b60006020828403121561126457611263610d41565b5b600061127284828501611239565b91505092915050565b7f5769746864726177616c73206e6f7420616c6c6f776564000000000000000000600082015250565b60006112b1601783611082565b91506112bc8261127b565b602082019050919050565b600060208201905081810360008301526112e0816112a4565b9050919050565b7f496e73756666696369656e742066756e64730000000000000000000000000000600082015250565b600061131d601283611082565b9150611328826112e7565b602082019050919050565b6000602082019050818103600083015261134c81611310565b9050919050565b7f4e487b7100000000000000000000000000000000000000000000000000000000600052601160045260246000fd5b600061138d82610ead565b915061139883610ead565b9250828210156113ab576113aa611353565b5b828203905092915050565b7f5769746864726177616c2068617070656e656400000000000000000000000000600082015250565b60006113ec601383611082565b91506113f7826113b6565b602082019050919050565b6000602082019050818103600083015261141b816113df565b9050919050565b7f43616e206f6e6c79206465706f736974207768696c6520616374697665000000600082015250565b6000611458601d83611082565b915061146382611422565b602082019050919050565b600060208201905081810360008301526114878161144b565b9050919050565b600061149982610ead565b91506114a483610ead565b9250827fffffffffffffffffffffffffffffffffffffffffffffffffffffffffffffffff038211156114d9576114d8611353565b5b828201905092915050565b60006060820190506114f96000830186610e83565b6115066020830185610e83565b611513604083018461102b565b949350505050565b7f4465706f7369742068617070656e656400000000000000000000000000000000600082015250565b6000611551601083611082565b915061155c8261151b565b602082019050919050565b6000602082019050818103600083015261158081611544565b9050919050565b7f4f776e61626c653a206e6577206f776e657220697320746865207a65726f206160008201527f6464726573730000000000000000000000000000000000000000000000000000602082015250565b60006115e3602683611082565b91506115ee82611587565b604082019050919050565b60006020820190508181036000830152611612816115d6565b9050919050565b7f5769746864726177616c732063616e206f6e6c7920626520726561637469766160008201527f74656420696620636c6f73656400000000000000000000000000000000000000602082015250565b6000611675602d83611082565b915061168082611619565b604082019050919050565b600060208201905081810360008301526116a481611668565b9050919050565b7f4f776e61626c653a2063616c6c6572206973206e6f7420746865206f776e6572600082015250565b60006116e1602083611082565b91506116ec826116ab565b602082019050919050565b60006020820190508181036000830152611710816116d4565b905091905056fea26469706673582212206c220d999720129009b52ab4329e3ea6abbd9221370311775052fef91d96aa4464736f6c63430008090033",
  "linkReferences": {},
  "deployedLinkReferences": {}
}