{
  "_format": "hh-sol-artifact-1",
  "contractName": "hDAOEscrow",
  "sourceName": "contracts/hDAOEscrow.sol",
  "abi": [
    {
      "anonymous": false,
      "inputs": [
        {
          "indexed": false,
          "internalType": "string",
          "name": "depositAnnouncement",
          "type": "string"
        }
      ],
      "name": "DepositEvent",
      "type": "event"
    },
    {
      "anonymous": false,
      "inputs": [
        {
          "indexed": true,
          "internalType": "address",
          "name": "previousOwner",
          "type": "address"
        },
        {
          "indexed": true,
          "internalType": "address",
          "name": "newOwner",
          "type": "address"
        }
      ],
      "name": "OwnershipTransferred",
      "type": "event"
    },
    {
      "anonymous": false,
      "inputs": [
        {
          "indexed": false,
          "internalType": "string",
          "name": "withdrawalAnnouncement",
          "type": "string"
        }
      ],
      "name": "WithdrawalEvent",
      "type": "event"
    },
    {
      "inputs": [
        {
          "internalType": "address",
          "name": "",
          "type": "address"
        },
        {
          "internalType": "bytes32",
          "name": "",
          "type": "bytes32"
        }
      ],
      "name": "accountBalances",
      "outputs": [
        {
          "internalType": "uint256",
          "name": "",
          "type": "uint256"
        }
      ],
      "stateMutability": "view",
      "type": "function"
    },
    {
      "inputs": [
        {
          "internalType": "uint256",
          "name": "amount",
          "type": "uint256"
        },
        {
          "internalType": "bytes32",
          "name": "symbol",
          "type": "bytes32"
        }
      ],
      "name": "depositTokens",
      "outputs": [],
      "stateMutability": "nonpayable",
      "type": "function"
    },
    {
      "inputs": [],
      "name": "owner",
      "outputs": [
        {
          "internalType": "address",
          "name": "",
          "type": "address"
        }
      ],
      "stateMutability": "view",
      "type": "function"
    },
    {
      "inputs": [],
      "name": "renounceOwnership",
      "outputs": [],
      "stateMutability": "nonpayable",
      "type": "function"
    },
    {
      "inputs": [
        {
          "internalType": "address",
          "name": "newOwner",
          "type": "address"
        }
      ],
      "name": "transferOwnership",
      "outputs": [],
      "stateMutability": "nonpayable",
      "type": "function"
    },
    {
      "inputs": [
        {
          "internalType": "bytes32",
          "name": "symbol",
          "type": "bytes32"
        },
        {
          "internalType": "address",
          "name": "tokenAddress",
          "type": "address"
        }
      ],
      "name": "whitelistToken",
      "outputs": [],
      "stateMutability": "nonpayable",
      "type": "function"
    },
    {
      "inputs": [
        {
          "internalType": "bytes32",
          "name": "",
          "type": "bytes32"
        }
      ],
      "name": "whitelistedTokens",
      "outputs": [
        {
          "internalType": "address",
          "name": "",
          "type": "address"
        }
      ],
      "stateMutability": "view",
      "type": "function"
    },
    {
      "inputs": [
        {
          "internalType": "uint256",
          "name": "amount",
          "type": "uint256"
        },
        {
          "internalType": "bytes32",
          "name": "symbol",
          "type": "bytes32"
        }
      ],
      "name": "withdrawTokens",
      "outputs": [],
      "stateMutability": "nonpayable",
      "type": "function"
    }
  ],
  "bytecode": "0x608060405234801561001057600080fd5b5061002d61002261003260201b60201c565b61003a60201b60201c565b6100fe565b600033905090565b60008060009054906101000a900473ffffffffffffffffffffffffffffffffffffffff169050816000806101000a81548173ffffffffffffffffffffffffffffffffffffffff021916908373ffffffffffffffffffffffffffffffffffffffff1602179055508173ffffffffffffffffffffffffffffffffffffffff168173ffffffffffffffffffffffffffffffffffffffff167f8be0079c531659141344cd1fd0a4f28419497f9722a3daafe3b4186f6b6457e060405160405180910390a35050565b610de18061010d6000396000f3fe608060405234801561001057600080fd5b50600436106100885760003560e01c8063aa3d9a151161005b578063aa3d9a15146100ed578063d15b223e1461011d578063e64fe36614610139578063f2fde38b1461016957610088565b8063069fdaae1461008d578063715018a6146100a95780638da5cb5b146100b35780638f97994b146100d1575b600080fd5b6100a760048036038101906100a29190610836565b610185565b005b6100b16101e3565b005b6100bb6101f7565b6040516100c89190610885565b60405180910390f35b6100eb60048036038101906100e691906108d6565b610220565b005b61010760048036038101906101029190610916565b610414565b6040516101149190610885565b60405180910390f35b610137600480360381019061013291906108d6565b610447565b005b610153600480360381019061014e9190610943565b6105aa565b6040516101609190610992565b60405180910390f35b610183600480360381019061017e91906109ad565b6105cf565b005b61018d610653565b806001600084815260200190815260200160002060006101000a81548173ffffffffffffffffffffffffffffffffffffffff021916908373ffffffffffffffffffffffffffffffffffffffff1602179055505050565b6101eb610653565b6101f560006106d1565b565b60008060009054906101000a900473ffffffffffffffffffffffffffffffffffffffff16905090565b81600260003373ffffffffffffffffffffffffffffffffffffffff1673ffffffffffffffffffffffffffffffffffffffff16815260200190815260200160002060008381526020019081526020016000205410156102b3576040517f08c379a00000000000000000000000000000000000000000000000000000000081526004016102aa90610a37565b60405180910390fd5b81600260003373ffffffffffffffffffffffffffffffffffffffff1673ffffffffffffffffffffffffffffffffffffffff168152602001908152602001600020600083815260200190815260200160002060008282546103139190610a86565b925050819055506001600082815260200190815260200160002060009054906101000a900473ffffffffffffffffffffffffffffffffffffffff1673ffffffffffffffffffffffffffffffffffffffff1663a9059cbb33846040518363ffffffff1660e01b8152600401610388929190610aba565b602060405180830381600087803b1580156103a257600080fd5b505af11580156103b6573d6000803e3d6000fd5b505050506040513d601f19601f820116820180604052508101906103da9190610b1b565b507f0f1d496ac5a9d2ac79de7db6343b4d28ca6d16152e3239c78a35130573cda1a960405161040890610b94565b60405180910390a15050565b60016020528060005260406000206000915054906101000a900473ffffffffffffffffffffffffffffffffffffffff1681565b81600260003373ffffffffffffffffffffffffffffffffffffffff1673ffffffffffffffffffffffffffffffffffffffff168152602001908152602001600020600083815260200190815260200160002060008282546104a79190610bb4565b925050819055506001600082815260200190815260200160002060009054906101000a900473ffffffffffffffffffffffffffffffffffffffff1673ffffffffffffffffffffffffffffffffffffffff166323b872dd3330856040518463ffffffff1660e01b815260040161051e93929190610c0a565b602060405180830381600087803b15801561053857600080fd5b505af115801561054c573d6000803e3d6000fd5b505050506040513d601f19601f820116820180604052508101906105709190610b1b565b507f966d5d49ff7569adbfb5b999d4705d06f9a93f64de13163c665ce175c9dc504160405161059e90610c8d565b60405180910390a15050565b6002602052816000526040600020602052806000526040600020600091509150505481565b6105d7610653565b600073ffffffffffffffffffffffffffffffffffffffff168173ffffffffffffffffffffffffffffffffffffffff161415610647576040517f08c379a000000000000000000000000000000000000000000000000000000000815260040161063e90610d1f565b60405180910390fd5b610650816106d1565b50565b61065b610795565b73ffffffffffffffffffffffffffffffffffffffff166106796101f7565b73ffffffffffffffffffffffffffffffffffffffff16146106cf576040517f08c379a00000000000000000000000000000000000000000000000000000000081526004016106c690610d8b565b60405180910390fd5b565b60008060009054906101000a900473ffffffffffffffffffffffffffffffffffffffff169050816000806101000a81548173ffffffffffffffffffffffffffffffffffffffff021916908373ffffffffffffffffffffffffffffffffffffffff1602179055508173ffffffffffffffffffffffffffffffffffffffff168173ffffffffffffffffffffffffffffffffffffffff167f8be0079c531659141344cd1fd0a4f28419497f9722a3daafe3b4186f6b6457e060405160405180910390a35050565b600033905090565b600080fd5b6000819050919050565b6107b5816107a2565b81146107c057600080fd5b50565b6000813590506107d2816107ac565b92915050565b600073ffffffffffffffffffffffffffffffffffffffff82169050919050565b6000610803826107d8565b9050919050565b610813816107f8565b811461081e57600080fd5b50565b6000813590506108308161080a565b92915050565b6000806040838503121561084d5761084c61079d565b5b600061085b858286016107c3565b925050602061086c85828601610821565b9150509250929050565b61087f816107f8565b82525050565b600060208201905061089a6000830184610876565b92915050565b6000819050919050565b6108b3816108a0565b81146108be57600080fd5b50565b6000813590506108d0816108aa565b92915050565b600080604083850312156108ed576108ec61079d565b5b60006108fb858286016108c1565b925050602061090c858286016107c3565b9150509250929050565b60006020828403121561092c5761092b61079d565b5b600061093a848285016107c3565b91505092915050565b6000806040838503121561095a5761095961079d565b5b600061096885828601610821565b9250506020610979858286016107c3565b9150509250929050565b61098c816108a0565b82525050565b60006020820190506109a76000830184610983565b92915050565b6000602082840312156109c3576109c261079d565b5b60006109d184828501610821565b91505092915050565b600082825260208201905092915050565b7f496e73756666696369656e742066756e64730000000000000000000000000000600082015250565b6000610a216012836109da565b9150610a2c826109eb565b602082019050919050565b60006020820190508181036000830152610a5081610a14565b9050919050565b7f4e487b7100000000000000000000000000000000000000000000000000000000600052601160045260246000fd5b6000610a91826108a0565b9150610a9c836108a0565b925082821015610aaf57610aae610a57565b5b828203905092915050565b6000604082019050610acf6000830185610876565b610adc6020830184610983565b9392505050565b60008115159050919050565b610af881610ae3565b8114610b0357600080fd5b50565b600081519050610b1581610aef565b92915050565b600060208284031215610b3157610b3061079d565b5b6000610b3f84828501610b06565b91505092915050565b7f5769746864726177616c2068617070656e656400000000000000000000000000600082015250565b6000610b7e6013836109da565b9150610b8982610b48565b602082019050919050565b60006020820190508181036000830152610bad81610b71565b9050919050565b6000610bbf826108a0565b9150610bca836108a0565b9250827fffffffffffffffffffffffffffffffffffffffffffffffffffffffffffffffff03821115610bff57610bfe610a57565b5b828201905092915050565b6000606082019050610c1f6000830186610876565b610c2c6020830185610876565b610c396040830184610983565b949350505050565b7f4465706f7369742068617070656e656400000000000000000000000000000000600082015250565b6000610c776010836109da565b9150610c8282610c41565b602082019050919050565b60006020820190508181036000830152610ca681610c6a565b9050919050565b7f4f776e61626c653a206e6577206f776e657220697320746865207a65726f206160008201527f6464726573730000000000000000000000000000000000000000000000000000602082015250565b6000610d096026836109da565b9150610d1482610cad565b604082019050919050565b60006020820190508181036000830152610d3881610cfc565b9050919050565b7f4f776e61626c653a2063616c6c6572206973206e6f7420746865206f776e6572600082015250565b6000610d756020836109da565b9150610d8082610d3f565b602082019050919050565b60006020820190508181036000830152610da481610d68565b905091905056fea2646970667358221220694ed1a3a8411d79bfa9c8b138455aee18146c6549eaf6d1cda7d846128aed2b64736f6c63430008090033",
  "linkReferences": {},
  "deployedLinkReferences": {}
}